{
  "contractName": "Greeting",
  "abi": [
    {
      "anonymous": false,
      "inputs": [
        {
          "indexed": false,
          "internalType": "string",
          "name": "_greet",
          "type": "string"
        }
      ],
      "name": "greetingChange",
      "type": "event"
    },
    {
      "inputs": [],
      "name": "read",
      "outputs": [
        {
          "internalType": "string",
          "name": "",
          "type": "string"
        }
      ],
      "stateMutability": "view",
      "type": "function",
      "constant": true
    },
    {
      "inputs": [
        {
          "internalType": "string",
          "name": "newGreeting",
          "type": "string"
        }
      ],
      "name": "write",
      "outputs": [],
      "stateMutability": "nonpayable",
      "type": "function"
    }
  ],
  "bytecode": "0x60806040526040518060400160405280601881526020017f7768617420646f20796f752077616e7420746f207361793f00000000000000008152506000908051906020019061004f929190610062565b5034801561005c57600080fd5b50610165565b82805461006e90610134565b90600052602060002090601f01602090048101928261009057600085556100d7565b82601f106100a957805160ff19168380011785556100d7565b828001600101855582156100d7579182015b828111156100d65782518255916020019190600101906100bb565b5b5090506100e491906100e8565b5090565b5b808211156101015760008160009055506001016100e9565b5090565b7f4e487b7100000000000000000000000000000000000000000000000000000000600052602260045260246000fd5b6000600282049050600182168061014c57607f821691505b60208210810361015f5761015e610105565b5b50919050565b6104de806101746000396000f3fe608060405234801561001057600080fd5b50600436106100365760003560e01c806357de26a41461003b578063ebaac77114610059575b600080fd5b610043610075565b6040516100509190610294565b60405180910390f35b610073600480360381019061006e91906103ff565b610107565b005b60606000805461008490610477565b80601f01602080910402602001604051908101604052809291908181526020018280546100b090610477565b80156100fd5780601f106100d2576101008083540402835291602001916100fd565b820191906000526020600020905b8154815290600101906020018083116100e057829003601f168201915b5050505050905090565b806000908051906020019061011d929190610158565b507f1261439453817fde02814e25b975a379a02e7a4874cf9d98a5996c7f2a026f018160405161014d9190610294565b60405180910390a150565b82805461016490610477565b90600052602060002090601f01602090048101928261018657600085556101cd565b82601f1061019f57805160ff19168380011785556101cd565b828001600101855582156101cd579182015b828111156101cc5782518255916020019190600101906101b1565b5b5090506101da91906101de565b5090565b5b808211156101f75760008160009055506001016101df565b5090565b600081519050919050565b600082825260208201905092915050565b60005b8381101561023557808201518184015260208101905061021a565b83811115610244576000848401525b50505050565b6000601f19601f8301169050919050565b6000610266826101fb565b6102708185610206565b9350610280818560208601610217565b6102898161024a565b840191505092915050565b600060208201905081810360008301526102ae818461025b565b905092915050565b6000604051905090565b600080fd5b600080fd5b600080fd5b600080fd5b7f4e487b7100000000000000000000000000000000000000000000000000000000600052604160045260246000fd5b61030c8261024a565b810181811067ffffffffffffffff8211171561032b5761032a6102d4565b5b80604052505050565b600061033e6102b6565b905061034a8282610303565b919050565b600067ffffffffffffffff82111561036a576103696102d4565b5b6103738261024a565b9050602081019050919050565b82818337600083830152505050565b60006103a261039d8461034f565b610334565b9050828152602081018484840111156103be576103bd6102cf565b5b6103c9848285610380565b509392505050565b600082601f8301126103e6576103e56102ca565b5b81356103f684826020860161038f565b91505092915050565b600060208284031215610415576104146102c0565b5b600082013567ffffffffffffffff811115610433576104326102c5565b5b61043f848285016103d1565b91505092915050565b7f4e487b7100000000000000000000000000000000000000000000000000000000600052602260045260246000fd5b6000600282049050600182168061048f57607f821691505b6020821081036104a2576104a1610448565b5b5091905056fea2646970667358221220ec30de8d0f1574ac5efdf089510c9108b767e879565a3404af790968a6f7eba464736f6c634300080e0033",
  "immutableReferences": {},
  "source": "// SPDX-License-Identifier: MIT\npragma solidity >=0.4.22 <0.9.0;\n\ncontract Greeting {\n    string greeting = \"what do you want to say?\";\n\n    event greetingChange(string _greet);\n\n    function read() public view returns (string memory) {\n        return greeting;\n    }\n\n    function write(string memory newGreeting) public {\n        greeting = newGreeting;\n        emit greetingChange((newGreeting));\n    }\n}\n",
  "sourcePath": "/Users/jeromejulien/Documents/vscode/FormationAlyra/01_Cours/DAPPS/03_truffleBox_exo/truffle/contracts/Greeting.sol",
  "compiler": {
    "name": "solc",
    "version": "0.8.14+commit.80d49f37.Emscripten.clang"
  },
  "schemaVersion": "3.4.10",
  "updatedAt": "2022-11-09T13:54:23.742Z",
  "networkType": "ethereum",
  "devdoc": {
    "kind": "dev",
    "methods": {},
    "version": 1
  },
  "userdoc": {
    "kind": "user",
    "methods": {},
    "version": 1
  }
}